S00F0000436F756E7465722E7372656335
S113000045C0000060C000005EC000005CC000008D
S11300105AC0000059C0000080C0000054C0000055
S113002052C00000D6C000004EC000004CC000000A
S11300304AC0000048C0000046C0000044C00000A0
S113004042C0000040C000003EC000003CC00000B0
S11300503AC0000038C0000036C0000034C00000C0
S113006032C0000030C000002EC000002CC00000D0
S11300702AC0000028C0000026C0000024C00000E0
S113008022C0000020C000001EC0000011241FBEBA
S1130090CFEFD0E1DEBFCDBF11E0A0E0B1E0EEECE8
S11300A0F2E000E00BBF02C007900D92AE30B10742
S11300B0D9F721E0AEE0B1E001C01D92AD31B20745
S11300C0E1F7B2D002C19CCF1F920F920FB60F92EC
S11300D011248F939F9380911301909114010097A1
S11300E039F481E090E090931401809313010EC0E1
S11300F0019761F41092140110921301809111017F
S1130100909112019093100180930F019F918F9110
S11301100F900FBE0F901F9018951F920F920FB65D
S11301200F921124109212011092110110921001D9
S113013010920F010F900FBE0F901F901895CF9340
S1130140DF93EC012AE030E0B90198D0E5E1F1E079
S113015091838083CB01B90191D093838283CE01B3
S113016064E670E08BD0CB01B90188D09583848399
S1130170CE0168EE73E082D0CB01B9017FD09783C2
S1130180868380E090E018C0FC01E050FF4F20819E
S113019028BBFC01EE0FFF1FEB5EFE4F0190F081C8
S11301A0E02DEC5FFE4F20812BBBEAE4F4E23197B3
S11301B0F1F700C000000196843091052CF3CF3094
S11301C0D74224F01092100110920F01DF91CF91C9
S11301D008951F920F920FB60F9211248F939F933D
S11301E0F89483B5885B83BD80910E018F5F809303
S11301F00E01843689F480911301909114010197C2
S113020049F4809111019091120101969093120189
S11302108093110110920E0178949F918F910F9009
S11302200FBE0F901F9018958FEF8ABB80EF87BB8E
S113023012B885E085BD88E483BD80E887BF86B7B2
S1130240806886BF80E389BF8AE08ABF80E188BF77
S1130250789480911301909114018130910531F4C7
S113026080911101909112016ADFF3CF892B89F7F4
S113027080910F019091100162DFEBCF97FB072E65
S113028016F4009406D077FD08D00BD007FC05D0F7
S11302903EF4909581959F4F0895709561957F4F99
S11302A00895AA1BBB1B51E107C0AA1FBB1FA617B9
S11302B0B70710F0A61BB70B881F991F5A95A9F70B
S11102C080959095BC01CD010895F894FFCF70
S11102CE70B0D0E03F065B4F666D7D277F6702
S9030000FC
