S00C00004750494F2E73726563E9
S113000045C0000060C000005EC000005CC000008D
S11300105AC0000059C0000080C0000054C0000055
S113002052C0000050C000004EC000004CC0000090
S11300304AC0000048C0000046C0000044C00000A0
S113004042C0000040C000003EC000003CC00000B0
S11300503AC0000038C0000036C0000034C00000C0
S113006032C0000030C000002EC000002CC00000D0
S11300702AC0000028C0000026C0000024C00000E0
S113008022C0000020C000001EC0000011241FBEBA
S1130090CFEFD0E1DEBFCDBF11E0A0E0B1E0E4E7F7
S11300A0F2E000E00BBF02C007900D92AE30B10742
S11300B0D9F721E0AEE0B1E001C01D92AC31B20746
S11300C0E1F787D0D5C09CCF1F920F920FB60F9245
S11300D011248F939F9380911201909113010097A3
S11300E039F481E090E090931301809312010EC0E3
S11300F0019761F410921301109212018091100182
S11301009091110190930F0180930E019F918F9113
S11301100F900FBE0F901F9018951F920F920FB65D
S11301200F921124109211011092100110920F01DC
S113013010920E010F900FBE0F901F901895CF9341
S1130140DF93EC012AE030E0B9016BD0CB01B901B7
S113015068D0E4E1F1E091838083CE0164E670E04D
S113016060D0CB01B9015DD093838283CE0168EE68
S113017073E057D0CB01B90154D095838483CE0169
S113018060E177E24ED0CB01B9014BD097838683EF
S113019080E090E018C0FC01E050FF4F208128BBB4
S11301A0FC01EE0FFF1FEC5EFE4F0190F081E02D8D
S11301B0EC5FFE4F20812BBBEAE4F4E23197F1F7C8
S11301C000C000000196843091052CF3DF91CF919B
S11301D008958FEF8ABB80EF87BB12B880E389BF95
S11301E08AE08ABF78948091120190911301813042
S11301F0910579F48091100190911101A0DF809113
S113020010019091110101969093110180931001B6
S1130210EACF892B41F780910E0190910F018FDF76
S1130220E2CF97FB072E16F4009406D077FD08D092
S11302300BD007FC05D03EF4909581959F4F08950F
S1130240709561957F4F0895AA1BBB1B51E107C0B0
S1130250AA1FBB1FA617B70710F0A61BB70B881F52
S1130260991F5A95A9F780959095BC01CD010895E1
S1070270F894FFCF2C
S111027470B0D0E03F065B4F666D7D277F675C
S9030000FC
