S00C0000546573742E7372656378
S113000045C0000060C000005EC000005CC000008D
S11300105AC000001DC3000056C0000054C00000B8
S113002052C0000050C000004EC000004CC0000090
S11300304AC0000048C0000046C0000044C00000A0
S113004042C0000040C000003EC000003CC00000B0
S11300503AC0000038C0000036C0000034C00000C0
S113006032C0000030C000002EC000002CC00000D0
S11300702AC0000028C0000026C0000024C00000E0
S113008022C0000020C000001EC0000011241FBEBA
S1130090CFEFD0E1DEBFCDBF11E0A0E0B1E0ECE1F5
S11300A0F0E100E00BBF02C007900D92A037B1074A
S11300B0D9F721E0A0E7B1E001C01D92AF3BB20740
S11300C0E1F716D3A9C79CCF5D9BFECF8CB98BB14A
S11300D080628BB908955F9BFECF8CB19BB1906811
S11300E09BB9089588EF8ABB87E08BBB089588E0AD
S11300F08BBB83E397E00197F1F789B38770813075
S113010009F45DC089B38770823009F45AC089B399
S11301108770843009F457C08FEF97E40197F1F7A3
S113012000C0000080E18BBB83E397E00197F1F707
S113013089B38770813009F448C089B387708230ED
S113014009F445C089B38770843009F442C08FEF45
S113015097E40197F1F700C0000080E28BBB83E3D2
S113016097E00197F1F789B387708130A1F189B3E2
S11301708770823091F189B38770843081F18FEF79
S113018097E40197F1F700C0000080E48BBB83E3A0
S113019097E00197F1F789B38770813011F189B342
S11301A08770823001F189B387708430F1F08FEF6A
S11301B097E40197F1F700C0000080E0089581E31F
S11301C0089582E3089583E3089584E3089585E31D
S11301D0089586E3089587E3089588E3089589E3FD
S11301E008958AE2089580E3089583E2089580E003
S11301F090E009C0FC01E654FE4F1082FC01EC546F
S1130200FE4F1082019685309105A0F3109277017C
S11302101092760108958091700190917101892B5B
S113022009F069C064DF8093B9018091B901833218
S113023031F481E090E09093730180937201809196
S1130240B9012091B90191E0803308F490E081E094
S11302502A3308F080E0892309F44DC080917601A7
S113026090917701892B59F48091B901EAEBF1E07F
S113027080831182E4EBF1E08AE280831182809131
S1130280760190917701019759F48091B901EAEBD5
S1130290F1E081831282E4EBF1E08AE2818312824D
S11302A08091760190917701029759F48091B90178
S11302B0EAEBF1E082831382E4EBF1E08AE28283E9
S11302C013828091760190917701039759F480917C
S11302D0B901EAEBF1E083831482E4EBF1E08AE212
S11302E08383148280917601909177010196909393
S11302F0770180937601809170019091710101974B
S113030009F066C08091B901833231F481E090E054
S113031090937301809372018091B9012091B90186
S113032091E0803308F490E081E02A3308F080E023
S1130330892309F44DC08091760190917701892B2E
S113034059F48091B901EAEBF1E080831182E4EB86
S1130350F1E08AE2808311828091760190917701A5
S1130360019759F48091B901EAEBF1E0818312829B
S1130370E4EBF1E08AE2818312828091760190912C
S11303807701029759F48091B901EAEBF1E0828395
S11303901382E4EBF1E08AE2828313828091760196
S11303A090917701039759F48091B901EAEBF1E058
S11303B083831482E4EBF1E08AE2838314828091E4
S11303C0760190917701019690937701809376015D
S11303D008958091700190917101892B09F04AC0B0
S11303E086DE8093B9018091B9012091B90191E031
S11303F0803308F490E081E02A3308F080E0892318
S1130400C9F18091740190917501892B31F4809127
S1130410B901E7E2F1E08083118280917401909147
S11304207501019731F48091B901E7E2F1E081832C
S113043012828091740190917501029731F4809138
S1130440B901E7E2F1E08283138280917401909113
S11304507501039731F48091B901E7E2F1E08383F8
S113046014828091740190917501019690937501A5
S1130470809374018091700190917101019709F04A
S113048047C08091B9012091B90191E0803308F40B
S113049090E081E02A3308F080E08923C9F180915B
S11304A0740190917501892B31F48091B901E7E2CF
S11304B0F1E080831182809174019091750101971C
S11304C031F48091B901E7E2F1E0818312828091F5
S11304D0740190917501029731F48091B901E7E2BA
S11304E0F1E08283138280917401909175010397E6
S11304F031F48091B901E7E2F1E0838314828091C1
S11305007401909175010196909375018093740123
S1130510089580E090E021C020E322BBEFEFF7E4F0
S11305203197F1F700C0000020E922BBEFEFF7E4B8
S11305303197F1F700C0000020EC22BBEFEFF7E4A5
S11305403197F1F700C0000020E622BBEFEFF7E49B
S11305503197F1F700C0000001968C309105E4F268
S113056008950F931F93CF938C0180E887BB8FB5B9
S11305708A608FBD8EB589618EBD10927A001DBCD4
S11305801CBCC0E029C0EC2FF0E0EE0FFF1FE00F11
S1130590F11F20813181032E000C440B550B60E0C8
S11305A070E880E790E016D237BD26BD86B597B5D2
S11305B096958795969587959695879590937900C6
S11305C080937800CF5F2FEF8FEB96E0215080402F
S11305D09040E1F700C00000C430A8F217BACF91F0
S11305E01F910F910895CF93DF9380E090E005C0B1
S11305F0FC01E95DFE4F1082019685309105C0F340
S1130600C0E0D0E01FC0B9D160E080E0AED18CE39F
S113061091E09FD1DEDE219660E081E0A6D187E201
S113062091E09F938F938DE491E09F938F9388E75C
S113063091E09F938F9315D20F900F900F900F908E
S11306400F900F90C430D105F0F2DF91CF9108954F
S11306501F920F920FB60F9211240BB60F922F9385
S11306603F934F935F936F937F938F939F93AF9336
S1130670BF93EF93FF93F89480917001909171016F
S1130680892B39F481E090E090937101809370019B
S11306900AC08091700190917101019721F4109228
S11306A071011092700169D160E080E05ED188E050
S11306B091E04FD12FEF8FE796E121508040904099
S11306C0E1F700C0000093DD7894FF91EF91BF91B2
S11306D0AF919F918F917F916F915F914F913F91D6
S11306E02F910F900BBE0F900FBE0F901F90189577
S11306F08FEF84BB90EF91BB9EE092B98093610031
S1130700109264001BB888E18AB986E08093950052
S11307101092900083E089B98ABF80E189BF88BFC5
S1130720789465DDDFDC32D1809100019091010184
S1130730892B41F45CDD2AD181E090E090930101A2
S1130740809300018091000190910101019761F76C
S11307508091700190917101019731F4BCDC809318
S1130760B9018091B901B0DC56DD8091720190919C
S11307707301019709F437DF00D160E080E0F5D020
S113078086E591E0E6D084EB91E09F938F9386E633
S113079091E09F938F9386E991E09F938F9361D12A
S11307A060E081E0E2D086E991E0D3D02FEF8FE7DB
S11307B094E0215080409040E1F700C000006AEBD3
S11307C071E087E291E044D1AC012091760130914F
S11307D0770181E00F900F900F900F900F900F9082
S11307E04115510509F080E091E02430310509F00C
S11307F090E09823C9F0C1D060E080E0B6D082E0F8
S113080091E0A7D084E391E0ACDE83DE2FEF8FE3A9
S113081098E3215080409040E1F700C0000010921E
S113082001011092000180CF8091760190917701AF
S113083021E030E0049711F020E030E02423352358
S1130840232BC1F09AD060E080E08FD086E191E064
S113085080D08CE291E085DE2FEF8FE398E3215086
S113086080409040E1F700C0000010920101109216
S113087000015ACF809176019091770104970CF48E
S113088053CF7BD060E080E070D086E191E061D00E
S11308908CE291E066DE2FEF8FE398E321508040F5
S11308A09040E1F700C00000109201011092000195
S11308B03BCFE2E6F0E090819E7F908390819D7F24
S11308C09083982F907F9460908320E12A95F1F78C
S11308D000C090819B7F908390819E7F90839081C4
S11308E09D7F908320E1829FC001112484608083D6
S11308F080E18A95F1F700C080818B7F8083089521
S1130900E2E6F0E090819D7F9083982F907F956040
S1130910908320E12A95F1F700C090819B7F90831A
S113092090819D7F908320E1829FC0011124856086
S1130930808380E18A95F1F700C080818B7F80837A
S11309400895DEDF89EF90E00197F1F700C0000021
S11309500895CF93DF93EC0102C0F3DF21968881E1
S11309608111FBCFDF91CF91089590E4899F600DB1
S11309701124862F80689DCF089581E09ADF87EA4D
S113098091E60197F1F700C00000089582E091DF3D
S113099083EF91E00197F1F700C0000088E289DF5E
S11309A083EF91E00197F1F700C0000088E281DF56
S11309B090E19A95F1F700C08CE07BDF80E18A95A5
S11309C0F1F700C086E075DF90E19A95F1F700C079
S11309D0D4CF0895052E97FB16F400940FD057FD3D
S11309E005D014D007FC02D046F408C050954095B9
S11309F0309521953F4F4F4F5F4F089590958095C7
S1130A00709561957F4F8F4F9F4F0895A1E21A2EE5
S1130A10AA1BBB1BFD010DC0AA1FBB1FEE1FFF1F9E
S1130A20A217B307E407F50720F0A21BB30BE40BEE
S1130A30F50B661F771F881F991F1A9469F7609535
S1130A407095809590959B01AC01BD01CF010895EF
S1130A50FB01DC018D91019080190110D9F3990BF0
S1130A6008950F931F93CF93DF93CDB7DEB72E97DF
S1130A700FB6F894DEBF0FBECDBF0D891E8986E088
S1130A808C831A8309838FEF9FE79E838D83AE0146
S1130A90475E5F4F6F89788DCE01019610D0EF814C
S1130AA0F885E00FF11F10822E960FB6F894DEBF82
S1130AB00FBECDBFDF91CF911F910F9108952F925B
S1130AC03F924F925F926F927F928F929F92AF92DA
S1130AD0BF92CF92DF92EF92FF920F931F93CF9327
S1130AE0DF93CDB7DEB72B970FB6F894DEBF0FBEFA
S1130AF0CDBF6C017B018A01FC01178216828381C0
S1130B0081FFBFC1CE0101963C01F6019381F7013B
S1130B1093FD859193FF81917F01882309F4ADC1F1
S1130B20853239F493FD859193FF81917F0185325C
S1130B3021F4B60190E0D6D1E8CF912C212C312CB0
S1130B40FFE1F315D8F08B3279F038F4803279F084
S1130B508332A1F4232D20611DC08D3261F08033D6
S1130B6069F4232D216016C0832D8260382EE32D75
S1130B70E4603E2E2AC0F32DF8601DC037FC2DC062
S1130B8020ED280F2A3040F08E32B9F436FC75C1BE
S1130B90232D2064322E19C036FE06C08AE0989EAA
S1130BA0200D1124922E11C0EAE02E9E200D112456
S1130BB0222EF32DF0623F2E08C08C3621F4832DB3
S1130BC08068382E02C0883641F4F70193FD859180
S1130BD093FF81917F018111B3CF982F9F7D95540D
S1130BE0933028F40C5F1F4F9FE399830DC0833625
S1130BF031F0833771F0833509F055C020C0F80116
S1130C00808189830E5F1F4F88248394912C530124
S1130C1012C02801F2E04F0E511CF801A080B180EF
S1130C2036FE03C0692D70E002C06FEF7FEFC5018F
S1130C304ED14C018201F32DFF773F2E15C02801C0
S1130C4022E0420E511CF801A080B18036FE03C0A0
S1130C50692D70E002C06FEF7FEFC5012DD14C010B
S1130C60F32DF0683F2E820133FC19C0822D90E0F1
S1130C7088169906A0F4B60180E290E033D12A9454
S1130C80F5CFF50137FC859137FE81915F01B601FF
S1130C9090E028D121102A9421E0821A910881142D
S1130CA0910479F7E1C0843611F0893639F5F801F9
S1130CB037FE07C060817181828193810C5F1F4F71
S1130CC008C060817181072E000C880B990B0E5FA0
S1130CD01F4FF32DFF763F2E97FF09C09095809507
S1130CE0709561957F4F8F4F9F4FF0683F2E2AE09C
S1130CF030E0A30133D1882E861844C0853731F4FF
S1130D00232D2F7EB22E2AE030E025C0932D997F2B
S1130D10B92E8F36C1F018F4883579F0AEC080371B
S1130D2019F0883721F0A9C0E92FE061BE2EB4FE86
S1130D300DC0FB2DF460BF2E09C034FE0AC0292F5C
S1130D402660B22E06C028E030E005C020E130E085
S1130D5002C020E132E0F801B7FE07C06081718172
S1130D60828193810C5F1F4F06C06081718180E096
S1130D7090E00E5F1F4FA301F1D0882E8618FB2D43
S1130D80FF773F2E36FE0DC0232D2E7FA22E891411
S1130D9058F434FE0BC032FC09C0832D8E7EA82E7D
S1130DA005C0B82CA32C03C0B82C01C0B92CA4FED8
S1130DB00FC0FE01E80DF11D8081803321F49A2DCE
S1130DC0997EA92E09C0A2FE06C0B394B39404C0B0
S1130DD08A2D867809F0B394A3FC10C0A0FE06C047
S1130DE0B21480F4280C922C9B180DC0B21458F441
S1130DF0B60180E290E076D0B394F8CFB21418F440
S1130E002B1802C0982C212CA4FE0FC0B60180E33D
S1130E1090E068D0A2FE16C0A1FC03C088E790E071
S1130E2002C088E590E0B6010CC08A2D867851F0A6
S1130E30A1FE02C08BE201C080E2A7FC8DE2B601F4
S1130E4090E050D0891430F4B60180E390E04AD0A9
S1130E509A94F8CF8A94F301E80DF11D8081B601CC
S1130E6090E040D08110F6CF222009F44ECEB60196
S1130E7080E290E037D02A94F7CFF60186819781FB
S1130E8002C08FEF9FEF2B960FB6F894DEBF0FBE14
S1130E90CDBFDF91CF911F910F91FF90EF90DF9025
S1130EA0CF90BF90AF909F908F907F906F905F9006
S1130EB04F903F902F900895FC0105906150704031
S1130EC00110D8F7809590958E0F9F1F0895FC010F
S1130ED06150704001900110D8F7809590958E0F65
S1130EE09F1F08950F931F93CF93DF93FB012381DB
S1130EF021FD03C08FEF9FEF2CC022FF16C0468157
S1130F005781248135814217530744F4A081B1816C
S1130F109D012F5F3F4F318320838C93268137813E
S1130F202F5F3F4F3783268314C08B01EC01FB01F5
S1130F300084F185E02D0995892BE1F6D8011696F8
S1130F408D919C911797019617969C938E93169763
S1130F50CE01DF91CF911F910F910895FA01AA2735
S1130F60283051F1203181F1E8946F936E7F6E5FE8
S1130F707F4F8F4F9F4FAF4FB1E03ED0B4E03CD096
S1130F80670F781F891F9A1FA11D680F791F8A1F79
S1130F90911DA11D6A0F711D811D911DA11D20D0E0
S1130FA009F468943F912AE0269F11243019305D9A
S1130FB03193DEF6CF010895462F4770405D41938B
S1130FC0B3E00FD0C9F7F6CF462F4F70405D4A33D8
S1130FD018F0495D31FD4052419302D0A9F7EACFA0
S1130FE0B4E0A6959795879577956795BA95C9F7CF
S1130FF000976105710508959B01AC010A2E0694C2
S11310005795479537952795BA95C9F7620F731F7A
S10F1010841F951FA01D0895F894FFCFC5
S113101C0100204F70656E00205374617465204389
S113102C68616E676500204572726F72206E756D13
S113103C6265722021210031323334002003A4066E
S113104C2003A406E803140540060807204D6F642A
S113105C6966792050617373776F726400205077DE
S113106C203A202573002050617373776F726420CB
S113107C496E70757400204B6579203A20257300F5
S9030000FC
