S016000031362D4269745F436F756E7465722E737265631C
S113000045C0000060C000005EC000005CC000008D
S11300105AC0000058C0000056C0000054C0000080
S113002052C0000050C000004EC000004CC0000090
S11300304AC0000048C0000046C0000044C00000A0
S113004042C0000040C000003EC000003CC00000B0
S11300503AC0000038C0000036C0000034C00000C0
S113006032C00000A5C000002EC000002CC000005B
S11300702AC0000028C0000026C0000024C00000E0
S113008022C0000020C000001EC0000011241FBEBA
S1130090CFEFD0E1DEBFCDBF11E0A0E0B1E0E2EBF5
S11300A0F2E000E00BBF02C007900D92A631B10749
S11300B0D9F721E0A6E1B1E001C01D92A232B20756
S11300C0E1F757D0F4C09CCFEAE1F1E09DEC899FC1
S11300D0212D1124269526952695422F440F342F41
S11300E0330F330F340F482F431B50E051834083A9
S11300F0299F912D1124969596959695990F392FB0
S1130100330F330F930F291B30E03383228329E20B
S1130110829F212D112422952F7030E03583248372
S113012090E068EE73E08DD0CB016AE070E089D096
S11301309783868380E090E018C0FC01E050FF4F75
S1130140208128BBFC01EE0FFF1FE65EFE4F0190ED
S1130150F081E02DEC5FFE4F20812BBBEFEFF3E24B
S11301603197F1F700C000000196843091052CF31B
S113017008958FEF8ABB80EF87BB12B810928B0073
S113018085E480938A0080E280937D0080937C00E4
S113019078948091190198DF809117018823C9F31D
S11301A080911801809118018FDF10921701F1CF0F
S11301B01F920F920FB60F9211242F933F936F93B8
S11301C07F938F939F93AF93BF93F894809116017D
S11301D081110FC085E080938A00109289001092EB
S11301E08800109281001092800081E080931601B3
S11301F01AC085E480938A002091800030918100A8
S1130200A3E8BDE231D0880F892F881F990B9195FF
S113021080931801809118018093190181E08093E3
S11302201701109216017894BF91AF919F918F910D
S11302307F916F913F912F910F900FBE0F901F9060
S1130240189597FB072E16F4009406D077FD08D076
S11302501AD007FC05D03EF4909581959F4F0895E0
S1130260709561957F4F0895A29FB001B39FC0011F
S1130270A39F700D811D1124911DB29F700D811DCE
S11302801124911D0895AA1BBB1B51E107C0AA1F8D
S1130290BB1FA617B70710F0A61BB70B881F991F23
S11302A05A95A9F780959095BC01CD010895F894CD
S10502B0FFCF7A
S11302B270B0D0E03F065B4F666D7C077F67777C4A
S10902C2395E7971088029
S9030000FC
